:020000040000FA
:0400000032EF3FF0AC
:107E6400000135EF3FF0000E956E010E926E000E8C
:107E7400836E010E806E0F0EC16E80A444EF3FF03E
:107E840046EF3FF0FEEF3FF08380838E050E026ED7
:107E94000F0E016EF10EE82EFED7012EFCD7022E36
:107EA400FAD700F08390839E050E026E0F0E016ECA
:107EB400F10EE82EFED7012EFCD7022EFAD700F0E1
:107EC4008382838C050E026E0F0E016EF10EE82E76
:107ED400FED7012EFCD7022EFAD700F08392839CA2
:107EE400050E026E0F0E016EF10EE82EFED7012E66
:107EF400FCD7022EFAD700F08384838A050E026E23
:107F04000F0E016EF10EE82EFED7012EFCD7022EC5
:107F1400FAD700F08394839A050E026E0F0E016E59
:107F2400F10EE82EFED7012EFCD7022EFAD700F070
:107F340083868388050E026E0F0E016EF10EE82E05
:107F4400FED7012EFCD7022EFAD700F08396839831
:107F5400050E026E0F0E016EF10EE82EFED7012EF5
:107F6400FCD7022EFAD700F0838A8384050E026EB2
:107F74000F0E016EF10EE82EFED7012EFCD7022E55
:107F8400FAD700F0839A8394050E026E0F0E016EE9
:107F9400F10EE82EFED7012EFCD7022EFAD700F000
:107FA400838C8382050E026E0F0E016EF10EE82E95
:107FB400FED7012EFCD7022EFAD700F0839C8392C1
:107FC400050E026E0F0E016EF10EE82EFED7012E85
:107FD400FCD7022EFAD700F0838E8380050E026E42
:107FE4000F0E016EF10EE82EFED7012EFCD7022EE5
:0C7FF400FAD700F0839E839000EF00F0AD
:020000040020DA
:08000000FFFFFFFFFFFFFFFF00
:020000040030CA
:0E00000000051F1FFF8385FF0FC00FE00F409C
:00000001FF
