:020000040000FA
:040000003BEF3FF0A3
:107E760000013EEF3FF0000E936E0F0EC16E80A420
:107E860047EF3FF049EF3FF0FEEF3FF08180030EF2
:107E9600026E8A0E016E560EE82EFED7012EFCD714
:107EA600022EFAD78182030E026E8A0E016E560EDC
:107EB600E82EFED7012EFCD7022EFAD78184030EB8
:107EC600026E8A0E016E560EE82EFED7012EFCD7E4
:107ED600022EFAD78186030E026E8A0E016E560EA8
:107EE600E82EFED7012EFCD7022EFAD78188030E84
:107EF600026E8A0E016E560EE82EFED7012EFCD7B4
:107F0600022EFAD7818A030E026E8A0E016E560E73
:107F1600E82EFED7012EFCD7022EFAD7818C030E4F
:107F2600026E8A0E016E560EE82EFED7012EFCD783
:107F3600022EFAD7818E030E026E8A0E016E560E3F
:107F4600E82EFED7012EFCD7022EFAD78190030E1B
:107F5600026E8A0E016E560EE82EFED7012EFCD753
:107F6600022EFAD78192030E026E8A0E016E560E0B
:107F7600E82EFED7012EFCD7022EFAD78194030EE7
:107F8600026E8A0E016E560EE82EFED7012EFCD723
:107F9600022EFAD78196030E026E8A0E016E560ED7
:107FA600E82EFED7012EFCD7022EFAD78198030EB3
:107FB600026E8A0E016E560EE82EFED7012EFCD7F3
:107FC600022EFAD7819A030E026E8A0E016E560EA3
:107FD600E82EFED7012EFCD7022EFAD7819C030E7F
:107FE600026E8A0E016E560EE82EFED7012EFCD7C3
:0A7FF600022EFAD7819E00EF00F082
:020000040020DA
:08000000FFFFFFFFFFFFFFFF00
:020000040030CA
:0E00000000051F1FFF8385FF0FC00FE00F409C
:00000001FF
