:020000040000FA
:040000001EEF3FF0C0
:107E3C00000121EF3FF0000E926E0F0EC16E000E8E
:107E4C00806E80A42CEF3FF02EEF3FF0FEEF3FF062
:107E5C00000E806E060E026E130E016EAE0EE82E34
:107E6C00FED7012EFCD7022EFAD7010E806E060E1D
:107E7C00026E130E016EAE0EE82EFED7012EFCD74D
:107E8C00022EFAD7030E806E060E026E130E016ED2
:107E9C00AE0EE82EFED7012EFCD7022EFAD7020E1C
:107EAC00806E060E026E130E016EAE0EE82EFED71D
:107EBC00012EFCD7022EFAD7060E806E060E026E2D
:107ECC00130E016EAE0EE82EFED7012EFCD7022E3D
:107EDC00FAD7070E806E060E026E130E016EAE0EF2
:107EEC00E82EFED7012EFCD7022EFAD7050E806E97
:107EFC00060E026E130E016EAE0EE82EFED7012E8C
:107F0C00FCD7022EFAD7040E806E060E026E130EEC
:107F1C00016EAE0EE82EFED7012EFCD7022EFAD73C
:107F2C000C0E806E060E026E130E016EAE0EE82E57
:107F3C00FED7012EFCD7022EFAD70D0E806E060E40
:107F4C00026E130E016EAE0EE82EFED7012EFCD77C
:107F5C00022EFAD70F0E806E060E026E130E016EF5
:107F6C00AE0EE82EFED7012EFCD7022EFAD70E0E3F
:107F7C00806E060E026E130E016EAE0EE82EFED74C
:107F8C00012EFCD7022EFAD70A0E806E060E026E58
:107F9C00130E016EAE0EE82EFED7012EFCD7022E6C
:107FAC00FAD70B0E806E060E026E130E016EAE0E1D
:107FBC00E82EFED7012EFCD7022EFAD7090E806EC2
:107FCC00060E026E130E016EAE0EE82EFED7012EBB
:107FDC00FCD7022EFAD7080E806E060E026E130E18
:107FEC00016EAE0EE82EFED7012EFCD7022EFAD76C
:047FFC0000EF00F0A2
:020000040020DA
:08000000FFFFFFFFFFFFFFFF00
:020000040030CA
:0E00000000051F1FFF8385FF0FC00FE00F409C
:00000001FF
